:10000000000008200502000031020000310200005B
:100010003102000031020000310200003102000014
:100020003102000031020000310200003102000004
:1000300031020000310200003102000031020000F4
:10004000310200003102000079060000E10A0000E0
:1000500031020000FD4C00003102000031020000BE
:1000600031020000310200003102000031020000C4
:1000700031020000090B00003102000031020000D3
:1000800031020000310200003102000031020000A4
:100090003102000031020000310200003102000094
:1000A0003102000031020000310200003102000084
:1000B0003102000031020000310200008D11000009
:1000C0003102000031020000310200003102000064
:1000D0003102000031020000310200003102000054
:1000E0003102000031020000310200003102000044
:1000F0003102000031020000310200003102000034
:100100003102000031020000310200003102000023
:100110003102000031020000310200003102000013
:100120003102000031020000310200003102000003
:1001300031020000310200003102000031020000F3
:1001400031020000310200003102000031020000E3
:1001500010B5054C237833B9044B13B10448AFF301
:1001600000800123237010BDA801002000000000C2
:1001700080B0000008B5034B1BB103490348AFF33F
:10018000008008BD00000000AC01002080B000002D
:10019000154B002B08BF134B9D46A3F5803A002159
:1001A0008B460F461348144A121A08F076FC0F4B80
:1001B000002B00D098470E4B002B00D09847002012
:1001C000002104000D000D48002802D00C48AFF3B8
:1001D000008008F033FC2000290007F0BDFE08F085
:1001E00019FC00BF0000080000000820000000000B
:1001F00000000000A8010020A4080020000000006A
:1002000000000000064880470649074A074B9A420B
:10021000BEBF51F8040B42F8040BF8E7FFF7B8FF34
:10022000110300008CB0000000000020A801002095
:10023000FEE700BF80B582B000AF00F025F878601F
:100240000A4BD3F808311B0AC3F308033B603B6831
:1002500001337A68B2FBF3F37B60054A7B68136075
:100260007B6818460837BD4680BD00BF00400E4081
:100270000800002080B400AF024B1846BD465DF870
:10028000047B704700A24A0480B483B000AF164BD1
:10029000D3F8943003F00703032B08D0042B02D0CB
:1002A000022B08D00BE0114B1B687B600BE04FF476
:1002B00000437B6007E00E4B1B687B6003E00D4B47
:1002C0001B687B6000BF084BD3F800311B0A03F0AA
:1002D0001F0301337A68B2FBF3F318460C37BD46AF
:1002E0005DF8047B704700BF00400E400400002012
:1002F000000000200C00002080B400AF034B1B68FE
:100300001846BD465DF8047B704700BF0000002022
:1003100080B400AF064BD3F88830054A43F470032D
:10032000C2F8883000BFBD465DF8047B704700BF4F
:1003300000ED00E080B400AF4FF400431846BD4626
:100340005DF8047B704780B400AF4FF47A731846B1
:10035000BD465DF8047B704780B400AF034B1B685B
:100360001846BD465DF8047B704700BF04000020BE
:1003700080B584B000AF78603960214B1B7883F082
:100380000103DBB2002B01D01E4B34E07B68002B55
:1003900001D11D4B2FE006F037FBB8600023FB6056
:1003A00022E01A4AFB681B0113440C331B7883F0CC
:1003B0000103DBB2002B14D0FA687B681A60134A81
:1003C000FB681B0113440C3301221A700F4AFB68AF
:1003D0001B01134400221A60B86806F025FB0023B5
:1003E00009E0FB680133FB60FB68172BD9DDB868B7
:1003F00006F01AFB064B18461037BD4680BD00BFFD
:10040000C4010020028000F0018000F0C80100203B
:10041000048000F080B584B000AF194B1B687B608E
:1004200000233B7106F0F0FAB860164B1B78002BE6
:1004300004D0B86806F0F8FA134B1CE0114B012207
:100440001A70B86806F0F0FA0023FB6009E00F4A62
:10045000FB681B0113440C3300221A70FB68013344
:10046000FB60FB68172BF2DD0423FB713B1D184674
:1004700006F0B0FE002318461037BD4680BD00BF11
:1004800050AE0000C4010020038000F0C80100202D
:1004900080B58CB008AFF860B9607A603B60BB6A29
:1004A00007937B6A069397F820300593FB690493C2
:1004B0003B7E0393002302933B6801937B68009388
:1004C000BB68FA680021002000F044F90346184692
:1004D0001037BD4680BD80B58CB008AFF860B960FC
:1004E0007A603B60BB6A07937B6A069397F820307B
:1004F0000593FB6904933B7E0393002302933B68BF
:1005000001937B680093BB68FA680121002000F02A
:1005100021F9034618461037BD4680BD80B582B02C
:1005200000AF7860124B1B7883F00103DBB2002B25
:1005300001D0104B17E07B68172B01D90E4B12E04E
:100540000E4A7B681B0113440C331B7883F00103B4
:10055000DBB2002B01D00A4B05E07B680021184676
:1005600006F022FE002318460837BD4680BD00BFB6
:10057000C4010020028000F0018000F0C8010020CA
:10058000078000F080B582B000AF7860124B1B7816
:1005900083F00103DBB2002B01D0104B17E07B6826
:1005A000172B01D90E4B12E00E4A7B681B01134436
:1005B0000C331B7883F00103DBB2002B01D00A4B14
:1005C00005E07B680121184606F0EEFD0023184681
:1005D0000837BD4680BD00BFC4010020028000F086
:1005E000018000F0C8010020078000F080B483B0D3
:1005F00000AF786039601A4B1B7883F00103DBB2DF
:10060000002B01D0174B25E07B68172B02D83B68E5
:10061000002B01D1144B1DE0144A7B681B011344CD
:100620000C331B7883F00103DBB2002B01D0104B9D
:1006300010E0104B1B6A01217A6801FA02F21340A4
:10064000002B03D03B6801221A7002E03B680022B5
:100650001A70002318460C37BD465DF8047B7047BE
:10066000C4010020028000F0018000F0C8010020D9
:10067000078000F00020004080B586B000AF324B0C
:100680001B6EFB60304BDB6EFA681340FB60FB684F
:10069000002B00DAFEE700237B6101233B614CE085
:1006A000FA683B691340002B41D0274A3B699366A7
:1006B0007B691B01254A1344BB60BB681B68002B88
:1006C00035D0BB689B685A1CBB689A60BB681B68C6
:1006D000BA689168BA685268786998470346002BEF
:1006E00014BF01230023DBB283F00103DBB2FB71F3
:1006F000FB7903F00103FB71BB685B7B012B16D117
:10070000FB79002B13D0124A7B695B01134403F180
:10071000080213796FF3410313710D4A7B695B0182
:10072000134403F1180213796FF3410313717B69CA
:1007300001337B613B695B003B617B69172BAFD960
:1007400000BF1837BD4680BD00200040C801002012
:100750004803002090B58BB000AFBA607B600346C1
:10076000FB730B46BB737A4B1B7883F00103DBB240
:10077000002B01D0774BE7E0BB68172B0FD8BB6B82
:10078000002B0CD0FB6B002B09D0BB6CB3F5006FBA
:1007900005DCFB7B012B04D13B6C002B01D16E4BA4
:1007A000D2E0BB681B016D4A13447B627B6A1B7BF2
:1007B00083F00103DBB2002B01D0694BC4E007F1E9
:1007C000100300221A605A609A60DA60BB685B010D
:1007D000644A13443B62BB7B002B1DD13B6A1A4623
:1007E0000023136053609360D3603A6A937843F0B8
:1007F000100393703A6AD37843F03003D37097F8BC
:10080000443083F00103DBB2002B22D03A6AD37864
:1008100043F00303D3701CE03B6A1A4600231360C5
:1008200053609360D3603A6A937843F010039370F7
:100830003A6AD37843F00303D37097F8443083F0D7
:100840000103DBB2002B04D03A6AD37843F03003C3
:10085000D3707B683B61BB6C9BB2013B9BB2C3F323
:100860000A0399B23A6A138861F30E131380BA6BC4
:100870003B6A9A60FA6B3B6A5A6097F84C3003F017
:100880000303D9B23A6AD37861F38303D370FB7B55
:10089000012B3AD13A6A137B43F0010313733A6A8E
:1008A000137B43F0020313733A6AD368042161F3A4
:1008B0009F03D3602B4ABB685B01134403F1100212
:1008C0003B6A14460FCB84E80F00264ABB685B01E5
:1008D000134403F1180253686FF0030161F39F039F
:1008E00053603A6C1F49BB685B010B4414331A60B8
:1008F000BB7B012B09D1FA6B1A49BB685B010B4426
:1009000018331A603A6C3B6A5A603B6D002B07D172
:10091000FB7B002B04D13A6A93786FF30413937036
:100920007B6A3A6D1A607B6A7A6D5A607B6A002234
:100930009A607B6AFA7B5A73BB6807F110013A6AC6
:10094000184606F081FC002318462C37BD4690BDA2
:10095000C4010020028000F0018000F0C8010020E6
:10096000078000F04803002080B483B000AF034646
:10097000FB71FB7903F01F02074997F907305B0908
:10098000012000FA02F241F8232000BF0C37BD46D7
:100990005DF8047B704700BF00E100E080B483B0E5
:1009A00000AF0346FB71FB7903F01F02074997F97B
:1009B00007305B09012000FA02F2603341F823207E
:1009C00000BF0C37BD465DF8047B704700E100E0D6
:1009D00080B483B000AF7860044A7B68C2F82434E6
:1009E00000BF0C37BD465DF8047B704700800840AF
:1009F00080B483B000AF074BD3F828347B60054B3D
:100A0000D3F81C247B68134018460C37BD465DF8AC
:100A1000047B70470080084080B485B000AF7860E8
:100A20007B68FB60FB6893FAA3F3BB60BB68B3FA17
:100A300083F318461437BD465DF8047B704780B5D4
:100A400000AF0D20FFF7AAFF0D20FFF78DFF032059
:100A5000FFF7A4FF0320FFF787FF00BF80BD000062
:100A600080B584B000AF03463960FB7105F0CCFF60
:100A7000F860FB7905493A6841F82320F86805F0E9
:100A8000D3FF00BF1037BD4680BD00BF4806002021
:100A900080B584B000AF786019E07868FFF7BCFFDC
:100AA000F8600122FB6802FA03F3DB431A467B6815
:100AB00013407B60094AFB6852F82330BB60BB6877
:100AC000002B04D0FB68DAB2BB68104698477B68FD
:100AD000002BE2D100BF1037BD4680BD4806002084
:100AE00080B582B000AFFFF783FF024645F2555351
:100AF00013407B607868FFF76BFF7868FFF7C8FFEB
:100B000000BF0837BD4680BD80B582B000AFFFF79B
:100B10006FFF02464AF6AA2313407B607868FFF70E
:100B200057FF7868FFF7B4FF00BF0837BD4680BDA8
:100B300080B483B000AF0346FB71FB7903F01F0262
:100B4000074997F907305B09012000FA02F241F8E2
:100B5000232000BF0C37BD465DF8047B704700BF03
:100B600000E100E080B483B000AF0346FB71FB7985
:100B700003F01F02074997F907305B09012000FACB
:100B800002F2603341F8232000BF0C37BD465DF808
:100B9000047B704700E100E080B485B000AF78606E
:100BA0007B68002B03D07B68B3F5004F00BF7B68E8
:100BB000B3FA83F3C3F11F03FB60FB6818461437D5
:100BC000BD465DF8047B704780B483B000AF7860A9
:100BD000064A7B6804331B01134404331B68184620
:100BE0000C37BD465DF8047B704700BF002006400F
:100BF00080B483B000AF78603960074A7B68043303
:100C00001B01134404333A681A6000BF0C37BD4619
:100C10005DF8047B704700BF0020064080B400AF41
:100C2000034B9B681846BD465DF8047B704700BFC8
:100C30000020064080B483B000AF7860044A7B682F
:100C4000136200BF0C37BD465DF8047B704700BFE0
:100C50000020064080B483B000AF7860064B5A6A2B
:100C60007B68DB43044913404B6200BF0C37BD4631
:100C70005DF8047B704700BF0020064080B483B05D
:100C800000AF7860054B5A6A04497B6813434B6296
:100C900000BF0C37BD465DF8047B7047002006405E
:100CA00080B483B000AF064B5B6A7B60044B9A69EB
:100CB0007B68134018460C37BD465DF8047B7047CF
:100CC0000020064080B586B000AF786000237B61CD
:100CD00000233B6105F098FEF86002E07B69013378
:100CE0007B617B69032B0ADC16497A6913469B00FA
:100CF0001344DB000B441E331B78002BEED17B69C1
:100D0000042B02D1104B3B6114E07B68002B0FD009
:100D10000C497A6913469B001344DB000B441E33D5
:100D200001221A707A697B681A6000233B6101E036
:100D3000064B3B61F86805F077FE3B6918461837AB
:100D4000BD4680BD88060020011000F0041000F0B0
:100D500080B500AF224B1B78002B01D000233CE074
:100D60001F4B01221A7001211E4804F023FC0221AE
:100D70001D4805F0C5F90820FFF70EFF0346DAB25B
:100D80001A4B1A7101211A4804F014FC174806F096
:100D900065FB1849012006F033FB40F2FF70FFF7B6
:100DA00059FF40F2FF70FFF745FF134B00229A6096
:100DB0001F20FFF7D7FE1F20FFF7BAFEA022002159
:100DC0000E4807F06AFE0E4B00221A700D4B0022EF
:100DD0001A700D4B00221A600023184680BD00BF18
:100DE0003207002000050A00050022001000002044
:100DF000A00914001C0000200020064088060020E6
:100E000030070020310700202C07002090B58FB05C
:100E100000AFF8607A603B600B46FB7200233B63D7
:100E2000FB68032B01D9B64B65E105F0EDFDF862D7
:100E3000B449FA6813469B001344DB000B441E338D
:100E40001B7883F00103DBB2002B04D0F86A05F0B5
:100E5000EBFDAD4B4FE17B68002B0BD13B68002BCA
:100E600003D03B68B96CF8689847F86A05F0DCFD78
:100E7000002340E1FFF7D2FE7863A249FA681346E7
:100E80009B001344DB000B4418333A681A607B68FC
:100E900019464FF000024FF000034FF00004D40356
:100EA00044EA5144CB0313F57A6044F100014FF456
:100EB000FA524FF0000307F009FC03460C461946AE
:100EC0002246904CF86803469B000344DB00234411
:100ED0000833C3E90012FB7A012B28D17B684FF459
:100EE0007A7202FB03F18748FA6813469B001344A9
:100EF000DB0003440833D3E900341A46F42303FB30
:100F000002F3CB1A18467F49FA6813469B00134434
:100F1000DB000B44103318607A49FA6813469B00D3
:100F20001344DB000B4414337A221A6013E0754932
:100F3000FA6813469B001344DB000B440833D3E9E3
:100F40000012704CF86803469B000344DB00234406
:100F50000833C3E900126B49FA6813469B00134437
:100F6000DB000B440833D3E90034591C44F1000280
:100F7000644CF86803469B000344DB002344C3E948
:100F800000126049FA6813469B001344DB000B44CF
:100F90001C3301221A705B49FA6813469B00134404
:100FA000DB000B441F33FA7A1A705649FA6813466D
:100FB0009B001344DB000B442033BA6C1A60534B84
:100FC0001B78002B04D0F86A05F02EFD002392E078
:100FD0004F4B1B68B3F1FF3F04D04D4B1B680133EF
:100FE0004B4A13604B4B1B7883F00103DBB2002BA1
:100FF0002ED0494A7B6B13600420FFF71BFE41494A
:10100000FA6813469B001344DB000B44D3E9003419
:10101000C7E906346FF064037B617B6919464FF0C2
:101020000002D7E90634A24208BF994201D20B461A
:1010300014463B617A6B3B69134419460120FFF764
:10104000D7FD0420FFF71AFE324B01221A7045E04B
:101050002F4B1B68012B41D12A49FA6813469B008C
:101060001344DB000B441C3300221A700420FFF7EA
:10107000F1FD294B1B687A6BD31ABB62B86A00F08A
:10108000D7F800F03DFA3B6B002B09D11D49FA68F7
:1010900013469B001344DB000B441C3301221A70DF
:1010A0003B6B01333B63786B00F05CFAFFF7B6FDF6
:1010B0007863194B1B687A6BD31ABB620120FFF768
:1010C00083FD0246144B1B68D31A7B62114B1B78BD
:1010D000002B03D0BA6A7B6A9A42C7D80C4B1B68B4
:1010E000002B04D00A4B1B68013B094A1360F86AC5
:1010F00005F09AFC002318463C37BD4690BD00BF62
:10110000021000F088060020031000F030070020D5
:101110002C070020310700202807002080B584B06C
:1011200000AF78607B68032B01D9154B23E005F0F5
:101130006BFCF86013497A6813469B001344DB008C
:101140000B441E331B7883F00103DBB2002B04D069
:10115000F86805F069FC0C4B0DE00A497A68134603
:101160009B001344DB000B441C3300221A70F86808
:1011700005F05AFC002318461037BD4680BD00BF5D
:10118000021000F088060020031000F080B586B041
:1011900000AF05F039FC3861FFF782FDF860FB68AD
:1011A00023F005031846FFF745FDFB6803F0040331
:1011B000002B30D01B4B01221A70FFF72FFD7861F6
:1011C0000420FFF747FD184B1B687A69D31ABB60F0
:1011D000B86800F02DF800F093F9786900F0C2F9D2
:1011E000FFF71CFD7861104B1B687A69D31ABB604E
:1011F0000120FFF7E9FC02460B4B1B68D31A7B600A
:101200000A4B1B78002B03D0BA687B689A42D7D868
:10121000044B00221A70386905F006FC00BF18372D
:10122000BD4680BD30070020280700203107002080
:10123000F0B587B000AF786000237B6156E1AF491D
:101240007A6913469B001344DB000B441D330022D4
:101250001A70AA497A6913469B001344DB000B44B9
:101260001C331B78002B00F03E81A4497A69134699
:101270009B001344DB000B44D3E900347A68114629
:101280004FF00002A24208BF99421AD29B497A69E4
:1012900013469B001344DB000B44D3E900567B68E4
:1012A0004FF0000429463246C91A62EB0402934CFF
:1012B000786903469B000344DB002344C3E9001222
:1012C00011E18E497A6913469B001344DB000B44FD
:1012D0001F331B78002B0AD188497A6913469B007B
:1012E0001344DB000B441C3300221A70E6E07B68D9
:1012F00019464FF00002814C786903469B00034475
:10130000DB002344D3E900560B4614465B1B64EB19
:101310000604C7E9023479497A6913469B001344ED
:10132000DB000B440833D3E9004574497A6913465E
:101330009B001344DB000B440833D3E90023D7E9B7
:10134000020107F0C3F9A41A65EB030521462A46FA
:101350006A4C786903469B000344DB002344C3E9DD
:10136000001266497A6913469B001344DB000B4464
:1013700010331B68002B50DD60497A6913469B00CF
:101380001344DB000B44143319685C487A69134634
:101390009B001344DB00034410331B681944574877
:1013A0007A6913469B001344DB000344143319602D
:1013B00052497A6913469B001344DB000B441433F3
:1013C0001B68F32B7AD94D497A6913469B00134465
:1013D000DB000B44D3E90034591C44F10002474CB4
:1013E000786903469B000344DB002344C3E90012F1
:1013F00042497A6913469B001344DB000B441433C3
:101400001B68A3F1F4013D487A6913469B0013441D
:10141000DB0003441433196050E038497A691346FD
:101420009B001344DB000B441433196833487A697A
:1014300013469B001344DB00034410331B68C91A96
:101440002E487A6913469B001344DB00034414338F
:1014500019602A497A6913469B001344DB000B4448
:1014600014331B68F32B29D924497A6913469B004E
:101470001344DB000B44D3E9003413F1FF3144F192
:10148000FF321E4C786903469B000344DB00234473
:10149000C3E9001219497A6913469B001344DB0023
:1014A0000B4414331B68A3F1F40114487A69134602
:1014B0009B001344DB000344143319600F497A691D
:1014C00013469B001344DB000B4418331B68002BAE
:1014D00009D00A497A6913469B001344DB000B4488
:1014E0001D3301221A707B6901337B617B69032BF9
:1014F0007FF7A5AE00BF1C37BD46F0BD88060020B3
:1015000090B583B000AF00237B6022E014497A6875
:1015100013469B001344DB000B441D331B78002B48
:1015200014D00F497A6813469B001344DB000B4428
:1015300018331C6878680A497A6813469B0013447C
:10154000DB000B4420331B681946A0477B6801333E
:101550007B607B68032BD9DD00BF0C37BD4690BD97
:101560008806002090B58BB000AF78604FF0FF3355
:101570004FF0FF34C7E9063400237B6227E031498E
:101580007A6A13469B001344DB000B441C331B7820
:10159000002B19D02B497A6A13469B001344DB00B9
:1015A0000B44D3E90012D7E90634A24208BF99429E
:1015B0000AD224497A6A13469B001344DB000B4489
:1015C000D3E90034C7E906347B6A01337B627B6A66
:1015D000032BD4DD1C4B00221A70D7E90634B4F17A
:1015E000FF3F08BFB3F1FF3F27D0D7E90634C7E973
:1015F00004346FF06403FB60FB6819464FF000028F
:10160000D7E90434A24208BF994201D20B461446DE
:10161000C7E906340D4A7B6813600420FFF70AFB14
:10162000BA697B68134419460120FFF7E1FA064BBB
:1016300001221A700420FFF721FB00BF2C37BD46A2
:1016400090BD00BF88060020310700202807002039
:10165000B0B58AB000AF786039609B4B07F10804E1
:101660001D460FCD0FC495E8030084E803007B6896
:10167000002B01D1954B81E13B68002B01D1944BAC
:101680007CE158220021786807F007FA3B681B6864
:10169000904A93420AD17B688F4ADA647B688F4A0A
:1016A0005A627B684FF440229A6251E03B681B68A3
:1016B0008B4A93420AD17B688A4ADA647B688A4AF9
:1016C0005A627B684FF450229A6241E03B681B6883
:1016D000864A93420AD17B68854ADA647B68854AE8
:1016E0005A627B684FF460229A6231E03B681B6863
:1016F000814A93420AD17B68804ADA647B68804AD7
:101700005A627B684FF470229A6221E03B681B6842
:101710007C4A93420AD17B687B4ADA647B687B4AC5
:101720005A627B684FF480129A6211E03B681B6832
:10173000774A93420AD17B68764ADA647B68764AB4
:101740005A627B684FF488129A6201E0604B15E19F
:101750007A683B6814461D460FCD0FC495E8070014
:1017600084E807003B685B7D012B01D10123BB7539
:101770003B689B7D002B02D100233B8319E03B6833
:101780009B7D012B03D14FF400733B8311E03B6839
:101790009B7D022B03D14FF480733B8309E03B68B0
:1017A0009B7D032B03D14FF440733B8301E0484BF7
:1017B000E4E03B681B7D012B05D100237B754FF4D2
:1017C0007A733B6102E03B689B683B6101215348AF
:1017D00003F0F0FE0121524803F0ECFE7B68DB6C65
:1017E0000121184603F0E6FE3B681B6807F108027A
:1017F0001146184605F0D4FF3B681B7D002B0BD12A
:101800003B68DB7D002B07D13B681B681A683B688F
:101810001B6842F480321A603B68DB7D002B1CD1D0
:101820003B681B680F225A673B681B689B6F03F07D
:10183000F8333A681279120213433A685279134323
:101840003A68927912061A433B68DB791B04194601
:101850003B681B680A439A6719E03B681B680B22C8
:101860005A673B681B689B6F23F0072323F007032D
:101870003A681279120213433A6852791A433B6864
:101880009B791B0619463B681B680A439A6701212E
:10189000786800F0EDF878627B6A002B01D07B6AF3
:1018A0006CE005F0B1F838621E4B1B7883F0010341
:1018B000DBB2002B38D01B4B01221A70386A05F0BE
:1018C000B3F8FFF745FA32E054AE0000012000F013
:1018D000022000F0000001400072040001000C0032
:1018E000000401400082040001000D0000080140D6
:1018F0000092060001000E00000C014000A204004E
:1019000001000F000010014000B2040001001000AF
:101910000014014000C20400010011004041050014
:1019200000550A0033070020386A05F07DF83B684F
:101930001B7D012B09D17B6854331846FFF7C2F990
:101940000346002B01D00F4B18E0FEF763FD7B68C8
:101950001C3300211846FEF70BFD0346002B01D077
:10196000094B0BE07B68203300211846FEF700FD91
:101970000346002B01D0044B00E000231846283713
:10198000BD46B0BD042000F0092000F080B588B04D
:1019900002AFF860B9607A603B60FB681B7D012B89
:1019A00001D1114B1CE03A68B968F86801F06AF996
:1019B00078617B69002B01D07B6911E07B68002B8B
:1019C00001D10A4B0CE00A4B00933B687A68B96876
:1019D000F86801F099F8F86801F08CF9FB685B6C25
:1019E00018461837BD4680BD082000F0022000F0E0
:1019F000491A000080B586B000AFF860B9607A601F
:101A0000FB681B7D012B01D10D4B15E07A68B9688D
:101A1000F86801F037F978617B69002B01D07B69A8
:101A20000AE0084B7A68B968F86801F0CBF8F86802
:101A300001F060F9FB685B6C18461837BD4680BD45
:101A4000082000F0491A000080B485B000AFF860AB
:101A5000B9607A60FB68BA685A64FB68012283F84F
:101A6000502000BF1437BD465DF8047B704700006E
:101A700080B58AB000AF78600B46FB707B68FB6076
:101A80007B681B68994A934240F06E81FB681B7922
:101A9000002B26D0FB681B79012B20D0FB681B791B
:101AA000022B1AD0FB681B79032B14D0FB681B791F
:101AB000042B0ED0FB681B79052B08D0FB681B7923
:101AC000062B01D106230DE04FF0FF330AE002237D
:101AD00008E0012306E0042304E0022302E00423DB
:101AE00000E00423BB61FB685B79002B26D0FB6818
:101AF0005B79012B20D0FB685B79022B1AD0FB6845
:101B00005B79032B14D0FB685B79042B0ED0FB6848
:101B10005B79052B08D0FB685B79062B01D1062386
:101B20000DE04FF0FF330AE0022308E0012306E056
:101B3000042304E0022302E0042300E004237B6189
:101B4000FB689B79002B26D0FB689B79012B20D06A
:101B5000FB689B79022B1AD0FB689B79032B14D06E
:101B6000FB689B79042B0ED0FB689B79052B08D072
:101B7000FB689B79062B01D106230DE04FF0FF3364
:101B80000AE0002308E0012306E0022304E0022328
:101B900002E0042300E004233B61FB68DB79002BB7
:101BA00026D0FB68DB79012B20D0FB68DB79022B88
:101BB0001AD0FB68DB79032B14D0FB68DB79042B8C
:101BC0000ED0FB68DB79052B08D0FB68DB79062B90
:101BD00001D106230DE04FF0FF330AE0002308E0B7
:101BE000012306E0022304E0022302E0042300E0D4
:101BF00004237A68D363FB681B79002B26D0FB682B
:101C00001B79012B20D0FB681B79022B1AD0FB68B3
:101C10001B79032B14D0FB681B79042B0ED0FB68B7
:101C20001B79052B08D0FB681B79062B01D10C23EF
:101C30000DE04FF0FF330AE0002308E0072306E041
:101C40000D2304E00B2302E0072300E00A237B625C
:101C5000FB685B79002B26D0FB685B79012B20D0D9
:101C6000FB685B79022B1AD0FB685B79032B14D0DD
:101C7000FB685B79042B0ED0FB685B79052B08D0E1
:101C8000FB685B79062B01D10D230DE04FF0FF338C
:101C90000AE0012308E0082306E00C2304E00A23FD
:101CA00002E0062300E00B233B62FB689B79002BDC
:101CB00028D0FB689B79012B22D0FB689B79022BF3
:101CC0001CD0FB689B79032B16D0FB689B79042BF7
:101CD00010D0FB689B79052B0AD0FB689B79062BFB
:101CE00001D10E230FE04FF0FF330CE00000014064
:101CF0000C2308E00D2306E00F2304E0092302E093
:101D0000052300E00C23FB61FB68DB79002B26D068
:101D1000FB68DB79012B20D0FB68DB79022B1AD022
:101D2000FB68DB79032B14D0FB68DB79042B0ED026
:101D3000FB68DB79052B08D0FB68DB79062B01D12A
:101D40000F230DE04FF0FF330AE00D2308E00E23D0
:101D500006E00E2304E0082302E0042300E00D2344
:101D60007A68136400F0F4BD7B681B68994A93425B
:101D700040F06E81FB681B79002B26D0FB681B7935
:101D8000012B20D0FB681B79022B1AD0FB681B7932
:101D9000032B14D0FB681B79042B0ED0FB681B7936
:101DA000052B08D0FB681B79062B01D100230DE021
:101DB0004FF0FF330AE0052308E0022306E0052385
:101DC00004E0032302E0032300E00223BB61FB687D
:101DD0005B79002B26D0FB685B79012B20D0FB6858
:101DE0005B79022B1AD0FB685B79032B14D0FB685C
:101DF0005B79042B0ED0FB685B79052B08D0FB6860
:101E00005B79062B01D100230DE04FF0FF330AE090
:101E1000002308E0022306E0052304E0032302E098
:101E2000032300E002237B61FB689B79002B26D013
:101E3000FB689B79012B20D0FB689B79022B1AD081
:101E4000FB689B79032B14D0FB689B79042B0ED085
:101E5000FB689B79052B08D0FB689B79062B01D189
:101E600004230DE04FF0FF330AE0012308E00223D2
:101E700006E0022304E0052302E0032300E001233F
:101E80003B61FB68DB79002B26D0FB68DB79012BFB
:101E900020D0FB68DB79022B1AD0FB68DB79032B9F
:101EA00014D0FB68DB79042B0ED0FB68DB79052BA3
:101EB00008D0FB68DB79062B01D101230DE04FF040
:101EC000FF330AE0042308E0022306E0022304E0D3
:101ED000052302E0032300E001237A68D363FB6853
:101EE0001B79002B26D0FB681B79012B20D0FB68C7
:101EF0001B79022B1AD0FB681B79032B14D0FB68CB
:101F00001B79042B0ED0FB681B79052B08D0FB68CE
:101F10001B79062B01D10E230DE04FF0FF330AE0B1
:101F2000022308E0012306E0062304E0072302E081
:101F3000002300E000237B62FB685B79002B26D046
:101F4000FB685B79012B20D0FB685B79022B1AD0F0
:101F5000FB685B79032B14D0FB685B79042B0ED0F4
:101F6000FB685B79052B08D0FB685B79062B01D1F8
:101F700002230DE04FF0FF330AE0002308E00223C4
:101F800006E0072304E0062302E0012300E001232A
:101F90003B62FB689B79002B28D0FB689B79012B67
:101FA00022D0FB689B79022B1CD0FB689B79032B0A
:101FB00016D0FB689B79042B10D0FB689B79052B0E
:101FC0000AD0FB689B79062B01D105230FE04FF067
:101FD000FF330CE0000401400B2308E0032306E07C
:101FE0000F2304E0002302E0022300E00723FB614B
:101FF000FB68DB79002B26D0FB68DB79012B20D036
:10200000FB68DB79022B1AD0FB68DB79032B14D039
:10201000FB68DB79042B0ED0FB68DB79052B08D03D
:10202000FB68DB79062B01D102230DE04FF0FF3373
:102030000AE0042308E0002306E00E2304E0012365
:1020400002E0032300E008237A68136400F080BCF8
:102050007B681B689A4A934240F03E81FB681B797B
:10206000002B20D0FB681B79012B1AD0FB681B7951
:10207000022B14D0FB681B79032B0ED0FB681B7955
:10208000042B08D0FB681B79052B01D105230BE03D
:102090004FF0FF3308E0052306E0002304E00023AF
:1020A00002E0012300E00223BB61FB685B79002BA7
:1020B00020D0FB685B79012B1AD0FB685B79022B7F
:1020C00014D0FB685B79032B0ED0FB685B79042B83
:1020D00008D0FB685B79052B01D105230BE04FF09D
:1020E000FF3308E0052306E0002304E0002302E0BC
:1020F000012300E002237B61FB689B79002B20D049
:10210000FB689B79012B1AD0FB689B79022B14D0BA
:10211000FB689B79032B0ED0FB689B79042B08D0BE
:10212000FB689B79052B01D105230BE04FF0FF33B2
:1021300008E0052306E0002304E0002302E0012379
:1021400000E002233B61FB68DB79002B20D0FB68B9
:10215000DB79012B1AD0FB68DB79022B14D0FB68EA
:10216000DB79032B0ED0FB68DB79042B08D0FB68EE
:10217000DB79052B01D105230BE04FF0FF3308E09D
:10218000052306E0012304E0002302E0012300E030
:1021900002237A68D363FB681B79002B20D0FB688D
:1021A0001B79012B1AD0FB681B79022B14D0FB681A
:1021B0001B79032B0ED0FB681B79042B08D0FB681E
:1021C0001B79052B01D100230BE04FF0FF3308E012
:1021D000062306E00D2304E0072302E0032300E0CA
:1021E00002237B62FB685B79002B20D0FB685B7964
:1021F000012B1AD0FB685B79022B14D0FB685B794A
:10220000032B0ED0FB685B79042B08D0FB685B794D
:10221000052B01D101230BE04FF0FF3308E007232A
:1022200006E00E2304E0082302E0042300E0032379
:102230003B62FB689B79002B20D0FB689B79012BCC
:102240001AD0FB689B79022B14D0FB689B79032B77
:102250000ED0FB689B79042B08D0FB689B79052B7B
:1022600001D102230BE04FF0FF3308E0082306E022
:102270000F2304E0092302E0052300E00423FB61AF
:10228000FB68DB79002B23D0FB68DB79012B1DD0A9
:10229000FB68DB79022B17D0FB68DB79032B11D0AD
:1022A000FB68DB79042B08D0FB68DB79052B01D1B7
:1022B00005230EE04FF0FF330BE0092309E000BFD8
:1022C000000801400B2304E00A2302E0062300E09B
:1022D00005237A6813643BE37B681B689A4A934240
:1022E00040F03E81FB681B79002B20D0FB681B79F6
:1022F000012B1AD0FB681B79022B14D0FB681B79C9
:10230000032B0ED0FB681B79042B08D0FB681B79CC
:10231000052B01D108230BE04FF0FF3308E0062323
:1023200006E0062304E0012302E0042300E000238A
:10233000BB61FB685B79002B20D0FB685B79012BCC
:102340001AD0FB685B79022B14D0FB685B79032BF6
:102350000ED0FB685B79042B08D0FB685B79052BFA
:1023600001D108230BE04FF0FF3308E0062306E01D
:10237000062304E0012302E0042300E000237B6144
:10238000FB689B79002B20D0FB689B79012B1AD02E
:10239000FB689B79022B14D0FB689B79032B0ED032
:1023A000FB689B79042B08D0FB689B79052B01D136
:1023B00008230BE04FF0FF3308E0062306E0062376
:1023C00004E0032302E0032300E000233B61FB68F9
:1023D000DB79002B20D0FB68DB79012B1AD0FB685E
:1023E000DB79022B14D0FB68DB79032B0ED0FB6862
:1023F000DB79042B08D0FB68DB79052B01D108239E
:102400000BE04FF0FF3308E0062306E0022304E070
:10241000022302E0042300E000237A68D363FB6810
:102420001B79002B20D0FB681B79012B1AD0FB688D
:102430001B79022B14D0FB681B79032B0ED0FB6891
:102440001B79042B08D0FB681B79052B01D10C23C9
:102450000BE04FF0FF3308E0002306E0062304E022
:10246000032302E0062300E000237B62FB685B7924
:10247000002B20D0FB685B79012B1AD0FB685B79BD
:10248000022B14D0FB685B79032B0ED0FB685B79C1
:10249000042B08D0FB685B79052B01D10D230BE0E1
:1024A0004FF0FF3308E0012306E0072304E0072391
:1024B00002E0072300E001233B62FB689B79002BCD
:1024C00020D0FB689B79012B1AD0FB689B79022BEB
:1024D00014D0FB689B79032B0ED0FB689B79042BEF
:1024E00008D0FB689B79052B01D10E230BE04FF040
:1024F000FF3308E0022306E0082304E0042302E09F
:10250000072300E00223FB61FB68DB79002B23D06B
:10251000FB68DB79012B1DD0FB68DB79022B17D020
:10252000FB68DB79032B11D0FB68DB79042B08D027
:10253000FB68DB79052B01D10F230EE04FF0FF3351
:102540000BE0032309E000BF000C0140002304E07E
:102550000E2302E0042300E003237A681364F7E10A
:102560007B681B68964A934240F00B81FB681B799D
:10257000002B1AD0FB681B79012B14D0FB681B7948
:10258000022B0ED0FB681B79032B08D0FB681B794C
:10259000042B01D1072309E04FF0FF3306E00823A5
:1025A00004E0082302E0032300E00123BB61FB6891
:1025B0005B79002B1AD0FB685B79012B14D0FB6888
:1025C0005B79022B0ED0FB685B79032B08D0FB688C
:1025D0005B79042B01D1072309E04FF0FF3306E0BC
:1025E000082304E0082302E0032300E001237B61C9
:1025F000FB689B79002B1AD0FB689B79012B14D0C8
:10260000FB689B79022B0ED0FB689B79032B08D0CB
:10261000FB689B79042B01D1072309E04FF0FF33BE
:1026200006E0082304E0082302E0032300E002237D
:102630003B61FB68DB79002B1AD0FB68DB79012B4F
:1026400014D0FB68DB79022B0ED0FB68DB79032BFF
:1026500008D0FB68DB79042B01D1072309E04FF098
:10266000FF3306E0082304E0082302E0032300E030
:1026700002237A68D363FB681B79002B1AD0FB68AE
:102680001B79012B14D0FB681B79022B0ED0FB6841
:102690001B79032B08D0FB681B79042B01D1042381
:1026A00009E04FF0FF3306E0062304E0002302E0D8
:1026B000092300E007237B62FB685B79002B1AD0BB
:1026C000FB685B79012B14D0FB685B79022B0ED081
:1026D000FB685B79032B08D0FB685B79042B01D185
:1026E000052309E04FF0FF3306E0072304E0012350
:1026F00002E00A2300E008233B62FB689B79002B81
:102700001AD0FB689B79012B14D0FB689B79022BB4
:102710000ED0FB689B79032B08D0FB689B79042BB8
:1027200001D1062309E04FF0FF3306E0082304E05F
:10273000022302E00B2300E00423FB61FB68DB794A
:10274000002B1AD0FB68DB79012B14D0FB68DB79F6
:10275000022B0ED0FB68DB79032B08D0FB68DB79FA
:10276000042B01D1072309E04FF0FF3306E00923D2
:1027700004E0032302E00C2300E005237A681364DD
:10278000E6E07B681B680F4A934240F0DF80FB68FD
:102790001B79002B18D0FB681B79012B0ED0FB682E
:1027A0001B79022B08D0FB681B79032B01D107236F
:1027B0000BE04FF0FF3308E0052306E0002304E0C0
:1027C00000100140001401400423BB61FB685B79E9
:1027D000002B14D0FB685B79012B0ED0FB685B7972
:1027E000022B08D0FB685B79032B01D1072307E09C
:1027F0004FF0FF3304E0012302E0002300E0042354
:102800007B61FB689B79002B14D0FB689B79012BC3
:102810000ED0FB689B79022B08D0FB689B79032BB9
:1028200001D1072307E04FF0FF3304E0052302E066
:10283000032300E001233B61FB68DB79002B14D00C
:10284000FB68DB79012B0ED0FB68DB79022B08D00B
:10285000FB68DB79032B01D1072307E04FF0FF333F
:1028600004E0052302E0032300E001237A68D36338
:10287000FB681B79002B14D0FB681B79012B0ED051
:10288000FB681B79022B08D0FB681B79032B01D155
:102890000A2307E04FF0FF3304E00F2302E0062392
:1028A00000E008237B62FB685B79002B14D0FB6897
:1028B0005B79012B0ED0FB685B79022B08D0FB689B
:1028C0005B79032B01D10B2307E04FF0FF3304E0CA
:1028D000012302E0072300E009233B62FB689B79A8
:1028E000002B14D0FB689B79012B0ED0FB689B79E1
:1028F000022B08D0FB689B79032B01D10C2307E046
:102900004FF0FF3304E00D2302E00D2300E00B2322
:10291000FB61FB68DB79002B14D0FB68DB79012BB2
:102920000ED0FB68DB79022B08D0FB68DB79032B28
:1029300001D10D2307E04FF0FF3304E00C2302E048
:102940000E2300E00D237A68136401E0544BA2E0EB
:10295000FB78002B6BD07B681B7D002B33D1BB69D0
:10296000D8B2796A0023042204F000FB7B69D8B254
:10297000396A0023012204F0F9FA7B689B7D002B61
:1029800003D07B689B7D012B07D13B69D8B2F969E5
:102990000023042204F0EAFA06E03B69D8B2F969A0
:1029A0000123042204F0E2FA7B68DB7D002B71D165
:1029B0007B68DB6BD8B27B681B6C19460123042251
:1029C00004F0D4FA66E0BB69D8B2796A0023012228
:1029D00004F0CCFA7B69D8B2396A0023042204F0EF
:1029E000C5FA7B689B7D002B03D07B689B7D012B08
:1029F00007D13B69D8B2F9690023022204F0B6FA84
:102A000006E03B69D8B2F9690123022204F0AEFA6C
:102A10007B68DB7D002B3DD17B68DB6BD8B27B68AC
:102A20001B6C19460123022204F0A0FA32E0BB69B4
:102A3000D8B2796A0023022204F098FA7B69D8B2EE
:102A4000396A0023022204F091FA7B689B7D002BF7
:102A500003D07B689B7D012B07D13B69D8B2F96914
:102A60000023022204F082FA06E03B69D8B2F96939
:102A70000123022204F07AFA7B68DB7D002B09D166
:102A80007B68DB6BD8B27B681B6C19460023002285
:102A900004F06CFA002318462837BD4680BD00BFFD
:102AA000022000F080B586B000AFF860B9607A60AF
:102AB00003F0AAFF78617B683B613B6900225A649E
:102AC0003B69002283F848203B6900229A633B69F6
:102AD0001B7D012B04D13B695B6D1846FEF71EFB85
:102AE0003B69DB6A002B06D03B69DB6A3A69526BB3
:102AF000002138699847786903F096FF012318464A
:102B00001837BD4680BD000080B58EB006AFF860B6
:102B1000B9607A603B60FB68002283F85020FB6854
:102B20003A685A63FB681B684FF44062DA60FB68DE
:102B3000BA6ADA62FB68DB68082B02D90123FB75ED
:102B400001E00023FB75FB68DB68082B08D9FB68F4
:102B50001B682433FB61FB681B683C33BB6107E0E7
:102B6000FB681B681C33FB61FB681B683433BB616B
:102B7000FB68186AFB68996AFB680493104B03931F
:102B8000FB7D02933B68019301230093FB697A6804
:102B9000FDF7A1FCFB68D869FB68596A0023049320
:102BA00000230393FB7D02933B6801930123009371
:102BB000BB68BA69FDF76CFC00BF2037BD4680BD1D
:102BC000A52A000080B58EB006AFF860B9607A60C3
:102BD0003B60FB68002283F85020FB687A685A63E8
:102BE000FB681B684FF44062DA60FB683A68DA629F
:102BF000FB68DB68082B02D90123FB7501E0002389
:102C0000FB75FB68DB68082B08D9FB681B6824335D
:102C1000FB61FB681B683C33BB6107E0FB681B681A
:102C20001C33FB61FB681B683433BB61FB68186AAB
:102C3000FB68996AFB6803F13002FB680493104B50
:102C40000393FB7D02937B68019300230093FB6950
:102C5000FDF741FCFB68D869FB68596A00230493BF
:102C600000230393FB7D02937B6801930123009370
:102C7000BB68BA69FDF70CFC00BF2037BD4680BDBC
:102C8000A52A000080B586B000AFF860B9607A6010
:102C9000FB68002B01D1144B21E0BB68002B06D050
:102CA0007B68002B03D07B68B3F5006F01DD0F4B11
:102CB00015E003F0A9FE7861FB6893F84830DBB2B9
:102CC000002B04D0786903F0AFFE094B07E0FB68E6
:102CD000012283F84820786903F0A6FE00231846F5
:102CE0001837BD4680BD00BF012000F0022000F073
:102CF000032000F080B582B000AF7860022003F0BE
:102D0000A1FE0346002B0CD001E0FDF7B5FC7B686B
:102D100093F85030DBB283F00103DBB2002BF4D127
:102D200009E000BF7B6893F85030DBB283F0010309
:102D3000DBB2002BF6D100BF0837BD4680BD80B4A2
:102D400083B000AF786039607B683A689A6400BFEE
:102D50000C37BD465DF8047B704780B485B000AF8A
:102D6000786039607B6803F10473DA003B681344D0
:102D70009B00FB60FB681B6818461437BD465DF876
:102D8000047B704780B485B000AF786039607B68A1
:102D900003F1C063FB60FB683A681A6000BF143738
:102DA000BD465DF8047B704780B485B000AF7860A5
:102DB00039607B6803F18063FB60FB683A681A60E6
:102DC00000BF1437BD465DF8047B704780B582B004
:102DD00000AF03463960FB71FB79002B16D0FB79FD
:102DE000012B13D0FB79022B10D0FB79032B0DD0D4
:102DF000FB79042B0AD0FB79052B07D0FB79062B36
:102E000004D0FB79072B01D0FB79082BFA79134604
:102E10005B0013441B011C3303F1804303F50823BB
:102E200039681846FFF799FF034618460837BD462C
:102E300080BD80B582B000AF03463960FB71FB797D
:102E4000002B16D0FB79012B13D0FB79022B10D06D
:102E5000FB79032B0DD0FB79042B0AD0FB79052BD2
:102E600007D0FB79062B04D0FB79072B01D0FB7927
:102E7000082BFA7913465B0013441B010C3303F152
:102E8000804303F5082301213A6801FA02F2114652
:102E90001846FFF789FF00BF0837BD4680BD80B5E3
:102EA00082B000AF03463960FB71FB79002B16D06E
:102EB000FB79012B13D0FB79022B10D0FB79032B6C
:102EC0000DD0FB79042B0AD0FB79052B07D0FB79B9
:102ED000062B04D0FB79072B01D0FB79082BFA795C
:102EE00013465B0013441B010C3303F1804303F5CD
:102EF000082301213A6801FA02F211461846FFF749
:102F000041FF00BF0837BD4680BD80B584B002AF29
:102F1000396011461A460346FB710B46BB711346D6
:102F20007B71BA79F8793B7C01937B7900931346E6
:102F30003A68396803F07EFF00BF0837BD4680BDA0
:102F400080B400AF054B1B69044A23F004031361EE
:102F500030BF00BFBD465DF8047B704700ED00E068
:102F600080B485B000AF78600023FB6010E00D4AAC
:102F7000FB6852F823305B7F1A467B68934204D18A
:102F8000084AFB6852F8233006E0FB680133FB6017
:102F9000FB68032BEBD9002318461437BD465DF8B8
:102FA000047B70473807002080B582B000AF78609E
:102FB0007B6893F83130022B0AD17B685A7E7B689C
:102FC0005B7F19461046FFF701FF0346DBB200E0C6
:102FD000002318460837BD4680BD80B586B000AFD7
:102FE0000346FB71FB791846FFF7BAFF78617B69EE
:102FF000002B3ED07B6993F83130022B39D17869B0
:10300000FFF7D2FF03461A467B691A757B695B7D21
:10301000022B2ED17B6993F82E30DBB2002B28D106
:103020000023FB737B695B6807F10F0211461846AA
:10303000FDF7DCFA38617B691B7D002B04D07B69CE
:1030400093F82F30002B09D07B69002283F82F20C2
:103050007B695B681846FDF795FA0AE03B69002B2F
:1030600007D1FB7B002B04D07B695B681846FDF71A
:1030700055FA00BF1837BD4680BD80B584B000AF9B
:1030800078607B6893F83130022B2FD17B685B7DB1
:10309000002B08D17B689A7E7B689B7F194610467F
:1030A000FFF7C7FE4AE07B685B7D012B08D17B6898
:1030B0009A7E7B689B7F19461046FFF7F0FE3DE045
:1030C0007B681B7D002B08D17B689A7E7B689B7F89
:1030D00019461046FFF7ADFE30E07B689A7E7B68AC
:1030E0009B7F19461046FFF7DAFE27E07B6893F8CE
:1030F0003130012B22D17B681B7D002B0FD1112396
:10310000FB73786801F08EFC07F10F03012219466A
:10311000786801F0F7FB786801F052FD0EE01323A8
:10312000FB73786801F07EFC07F10F03012219465A
:10313000786801F0E7FB786801F042FD002318464B
:103140001037BD4680BD000080B586B000AFF86086
:10315000B9607A6003F058FC7861FB689B889AB28A
:10316000FB68DB889A4207D37B6800221A60786983
:1031700003F05AFC1D4B35E0FB681B889BB21A46D6
:1031800013469B0013449B000833FA68134414222F
:10319000B968184605F076FCFB681B889BB21A4696
:1031A00013469B0013449B000833FA681A447B685B
:1031B0001A60FB681B889BB20133FA68D28893FBC4
:1031C000F2F102FB01F29B1A9AB2FB681A80FB68CB
:1031D0009B889BB201339AB2FB689A80786903F0AE
:1031E00023FC002318461837BD4680BD0A7000F046
:1031F00080B584B000AF7860396003F005FCF860FA
:103200007B689B889BB2002B07D13B6800221A6029
:10321000F86803F009FC164B25E07B685B889BB2DD
:103220001A4613469B0013449B0008337A681A44DD
:103230003B681A607B685B889BB201337A68D288EE
:1032400093FBF2F102FB01F29B1A9AB27B685A805F
:103250007B689B889BB2013B9AB27B689A80F86836
:1032600003F0E2FB002318461037BD4680BD00BFC7
:103270000B7000F080B584B000AF7860396003F067
:10328000C3FBF8607B689B889BB2002B07D13B682F
:1032900000221A60F86803F0C7FB0B4B10E07B6854
:1032A0005B889BB21A4613469B0013449B0008336D
:1032B0007A681A443B681A60F86803F0B5FB00238B
:1032C00018461037BD4680BD0B7000F080B483B047
:1032D00000AF78607B6893F83230002B14D17B68A4
:1032E0001B680422DA6000BF7B681B681B6903F05F
:1032F0000203002BF8D07B681B685A6F7B681B6841
:1033000042F002025A6720E07B6893F83230012BCA
:103310001BD100BF7B681B685B6C03F00203002BB2
:10332000F8D17B681B6804225A6000BF7B681B6869
:103330009B6803F00203002BF8D07B681B685A6D72
:103340007B681B6842F002025A6500BF0C37BD461D
:103350005DF8047B704780B483B000AF78607B6811
:1033600093F83230002B0CD17B681B685A6F7B6856
:103370001B6822F002025A677B681B680822DA6029
:1033800018E07B6893F83230012B13D100BF7B68C3
:103390001B685B6C03F00203002BF8D17B681B6891
:1033A0005A6D7B681B6822F002025A657B681B68B5
:1033B00008225A6000BF0C37BD465DF8047B704799
:1033C00080B483B000AF78607B6893F83230002B14
:1033D00014D17B681B680122DA6000BF7B681B6820
:1033E0001B6903F00103002BF8D07B681B685A6F40
:1033F0007B681B6842F001025A6720E07B6893F803
:103400003230012B1BD100BF7B681B685B6C03F063
:103410000203002BF8D17B681B6801225A6000BFB1
:103420007B681B689B6803F00103002BF8D07B6866
:103430001B685A6D7B681B6842F001025A6500BF29
:103440000C37BD465DF8047B704780B483B000AF95
:1034500078607B6893F83230002B0CD17B681B6856
:103460005A6F7B681B6822F001025A677B681B68F1
:103470000222DA6018E07B6893F83230012B13D116
:1034800000BF7B681B685B6C03F00203002BF8D164
:103490007B681B685A6D7B681B6822F001025A65C5
:1034A0007B681B6802225A6000BF0C37BD465DF87E
:1034B000047B704790B58BB006AF7860396000230D
:1034C000FB607B68012283F82C207B6893F8323004
:1034D000002B04D17B681B681C33FB600EE07B680B
:1034E00093F83230012B04D17B681B681C33FB60DE
:1034F00004E07B68002283F82C2014E07B68986845
:103500007B6819693B681A683B685B681C467B6886
:103510000493064B03930023029301940123009329
:10352000FB68FCF7D8FF1437BD4690BDB1350000ED
:1035300090B58BB006AF786039600023FB607B6884
:10354000012283F82D207B6893F83230002B04D1C0
:103550007B681B683433FB600EE07B6893F8323085
:10356000012B04D17B681B682833FB6004E07B6877
:10357000002283F82D2015E07B6858687B68D968A5
:103580003B681A683B685B681C467B680493074B82
:103590000393002302930194012300931346FA68D6
:1035A000FCF776FF1437BD4690BD00BF49370000D9
:1035B00090B589B000AFF860B9607A607B68FB6154
:1035C000FB695B6A07F1100211461846FFF752FECD
:1035D000B861BB69594A934201D10123AAE0FB6952
:1035E00093F83230002B12D1FB691B681B6C03F47B
:1035F0000073002B0BD03B69514A1A613B690022D2
:103600009A60FB691B684FF400729A644BE0FB6997
:1036100093F83230012B11D1FB691B68DB6A03F090
:103620008003002B0AD03B69454A1A613B6900229E
:103630009A60FB691B6880225A6334E0FB6993F847
:103640003230002B12D1FB691B681B6C03F48073B2
:10365000002B0BD03B693B4A1A613B6900229A6000
:10366000FB691B684FF480729A641CE0FB6993F855
:103670003230012B11D1FB691B68DB6A03F0400378
:10368000002B0AD03B692F4A1A613B6900229A60DD
:10369000FB691B6840225A6305E03B6900221A61FE
:1036A0003B6900229A6003F0AFF978613B69DB68FF
:1036B000002B0DD03B69DC683B6919693B691868D0
:1036C0003B695A683B699B68D31A0246F869A04770
:1036D000FB695B6A07F1100211461846FFF788FD87
:1036E000FB695B6A9B889BB2002B0DD0FB695B6A10
:1036F00007F1100211461846FFF7BCFD3B69194659
:10370000F869FFF7D7FE11E0FB6901221A75F86925
:10371000FFF7B3FCFB69002283F82C20FB6993F8C8
:103720003130032B02D0F869FFF78FFE786903F080
:103730007BF9012318462437BD4690BD0B7000F07D
:103740000D7000F00C7000F090B589B000AFF8601B
:10375000B9607A607B68FB61FB699B6A07F11002C4
:1037600011461846FFF786FDB861BB69214A9342AE
:1037700001D1012339E03B6900221A613B69002233
:103780009A6003F041F978613B69DB68002B08D04F
:103790003B69DC683B691A683B695B680021F86932
:1037A000A047FB699B6A07F1100211461846FFF714
:1037B0001FFDFB699B6A9B889BB2002B0DD0FB69A8
:1037C0009B6A07F1100211461846FFF753FD3B694B
:1037D0001946F869FFF7ACFE03E0FB69002283F8A5
:1037E0002D20786903F020F9012318462437BD46BF
:1037F00090BD00BF0B7000F080B485B000AFF860E2
:10380000B9607A60FB68002B01D10A4B0CE0BB6801
:10381000002B06D07B68002B03D07B68B3F5006FCC
:1038200001D9054B00E0002318461437BD465DF86A
:10383000047B7047027000F0037000F080B483B026
:1038400000AF786039607B681B688B4A934240F018
:10385000B6803B681B7A002B25D03B681B7A012B76
:103860001FD03B681B7A022B19D03B681B7A032BB5
:1038700013D03B681B7A042B0DD03B681B7A052BB9
:1038800007D03B681B7A062B01D106230CE0FF23EF
:103890000AE0022308E0012306E0042304E00223F7
:1038A00002E0042300E004237A68D3753B685B7A66
:1038B000002B25D03B685B7A012B1FD03B685B7ADD
:1038C000022B19D03B685B7A032B13D03B685B7AE1
:1038D000042B0DD03B685B7A052B07D03B685B7AE5
:1038E000062B01D106230CE0FF230AE0022308E0A7
:1038F000012306E0042304E0022302E0042300E0A5
:1039000004237A6813763B681B7A002B25D03B682A
:103910001B7A012B1FD03B681B7A022B19D03B6806
:103920001B7A032B13D03B681B7A042B0DD03B680A
:103930001B7A052B07D03B681B7A062B01D10C2381
:103940000CE0FF230AE0002308E0072306E00D2334
:1039500004E00B2302E0072300E00A237A68D37611
:103960003B685B7A002B25D03B685B7A012B1FD02C
:103970003B685B7A022B19D03B685B7A032B13D030
:103980003B685B7A042B0DD03B685B7A052B07D034
:103990003B685B7A062B01D10D230CE0FF230AE084
:1039A000012308E0082306E00C2304E00A2302E0D8
:1039B000062300E00B237A68137700F06DBC7B6868
:1039C0001B682E4A934240F0B9803B681B7A002B5B
:1039D00025D03B681B7A012B1FD03B681B7A022B3A
:1039E00019D03B681B7A032B13D03B681B7A042B3E
:1039F0000DD03B681B7A052B07D03B681B7A062B42
:103A000001D100230CE0FF230AE0052308E0022394
:103A100006E0052304E0032302E0032300E0022381
:103A20007A68D3753B685B7A002B29D03B685B7A58
:103A3000012B1FD03B685B7A022B19D03B685B7A65
:103A4000032B13D03B685B7A042B0DD03B685B7A69
:103A5000052B07D03B685B7A062B01D1002310E0D1
:103A6000FF230EE000230CE002230AE0052308E018
:103A7000032306E0032304E00000014000040140AA
:103A800002237A6813763B681B7A002B25D03B68AB
:103A90001B7A012B1FD03B681B7A022B19D03B6885
:103AA0001B7A032B13D03B681B7A042B0DD03B6889
:103AB0001B7A052B07D03B681B7A062B01D10E23FE
:103AC0000CE0FF230AE0022308E0012306E00623BE
:103AD00004E0072302E0002300E000237A68D376A5
:103AE0003B685B7A002B25D03B685B7A012B1FD0AB
:103AF0003B685B7A022B19D03B685B7A032B13D0AF
:103B00003B685B7A042B0DD03B685B7A052B07D0B2
:103B10003B685B7A062B01D102230CE0FF230AE00D
:103B2000002308E0022306E0072304E0062302E066
:103B3000012300E001237A681377ADE37B681B68FB
:103B40008C4A934240F09D803B681B7A002B1FD02B
:103B50003B681B7A012B19D03B681B7A022B13D0D0
:103B60003B681B7A032B0DD03B681B7A042B07D0D4
:103B70003B681B7A052B01D105230AE0FF2308E0EF
:103B8000052306E0002304E0002302E0012300E017
:103B900002237A68D3753B685B7A002B1FD03B68A1
:103BA0005B7A012B19D03B685B7A022B13D03B6800
:103BB0005B7A032B0DD03B685B7A042B07D03B6804
:103BC0005B7A052B01D105230AE0FF2308E00523DA
:103BD00006E0002304E0002302E0012300E00223CA
:103BE0007A6813763B681B7A002B1FD03B681B7AE0
:103BF000012B19D03B681B7A022B13D03B681B7A30
:103C0000032B0DD03B681B7A042B07D03B681B7A33
:103C1000052B01D100230AE0FF2308E0062306E07C
:103C20000D2304E0072302E0032300E002237A6867
:103C3000D3763B685B7A002B1FD03B685B7A012B05
:103C400019D03B685B7A022B13D03B685B7A032B5D
:103C50000DD03B685B7A042B07D03B685B7A052B61
:103C600001D101230AE0FF2308E0072306E00E2329
:103C700004E0082302E0042300E003237A681377BA
:103C80000AE37B681B683C4A934240F0A2803B6891
:103C90001B7A002B1FD03B681B7A012B19D03B6885
:103CA0001B7A022B13D03B681B7A032B0DD03B6889
:103CB0001B7A042B07D03B681B7A052B01D1082304
:103CC0000AE0FF2308E0062306E0062304E00123C0
:103CD00002E0042300E000237A68D3753B685B7A36
:103CE000002B1FD03B685B7A012B19D03B685B7AB5
:103CF000022B13D03B685B7A032B0DD03B685B7AB9
:103D0000042B07D03B685B7A052B01D108230AE01E
:103D1000FF2308E0062306E0062304E0012302E077
:103D2000042300E000237A6813763B681B7A002B9B
:103D300024D03B681B7A012B19D03B681B7A022BDD
:103D400013D03B681B7A032B0DD03B681B7A042BE6
:103D500007D03B681B7A052B01D10C230FE0FF2312
:103D60000DE000230BE0062309E0032307E0062310
:103D700005E000BF00080140000C014000237A6804
:103D8000D3763B685B7A002B1FD03B685B7A012BB4
:103D900019D03B685B7A022B13D03B685B7A032B0C
:103DA0000DD03B685B7A042B07D03B685B7A052B10
:103DB00001D10D230AE0FF2308E0012306E00723D9
:103DC00004E0072302E0072300E001237A68137769
:103DD00062E27B681B68954A934240F085803B68AD
:103DE0001B7A002B19D03B681B7A012B13D03B6840
:103DF0001B7A022B0DD03B681B7A032B07D03B6844
:103E00001B7A042B01D1072308E0FF2306E00823D7
:103E100004E0082302E0032300E001237A68D3755D
:103E20003B685B7A002B19D03B685B7A012B13D07F
:103E30003B685B7A022B0DD03B685B7A032B07D083
:103E40003B685B7A042B01D1072308E0FF2306E0DF
:103E5000082304E0082302E0032300E001237A683A
:103E600013763B681B7A002B19D03B681B7A012B19
:103E700013D03B681B7A022B0DD03B681B7A032BB7
:103E800007D03B681B7A042B01D1042308E0FF23F1
:103E900006E0062304E0002302E0092300E00723F4
:103EA0007A68D3763B685B7A002B19D03B685B7AE3
:103EB000012B13D03B685B7A022B0DD03B685B7AF9
:103EC000032B07D03B685B7A042B01D1052308E064
:103ED000FF2306E0072304E0012302E00A2300E0B9
:103EE00008237A681377D7E17B681B68504A9342AE
:103EF0006CD13B681B7A002B13D03B681B7A012BDB
:103F00000DD03B681B7A022B07D03B681B7A032B32
:103F100001D1072306E0FF2304E0052302E000238C
:103F200000E004237A68D3753B685B7A002B13D0DA
:103F30003B685B7A012B0DD03B685B7A022B07D084
:103F40003B685B7A032B01D1072306E0FF2304E0E3
:103F5000012302E0002300E004237A6813763B6823
:103F60001B7A002B13D03B681B7A012B0DD03B68CA
:103F70001B7A022B07D03B681B7A032B01D10A2343
:103F800006E0FF2304E00F2302E0062300E00823FD
:103F90007A68D3763B685B7A002B13D03B685B7AF8
:103FA000012B0DD03B685B7A022B07D03B685B7A14
:103FB000032B01D10B2306E0FF2304E0012302E0E1
:103FC000072300E009237A68137765E17B681B68A3
:103FD000184A934240F0BB803B681B7A002B2BD0E1
:103FE0003B681B7A012B1FD03B681B7A022B19D030
:103FF0003B681B7A032B13D03B681B7A042B0DD034
:104000003B681B7A052B07D03B681B7A062B01D136
:10401000032312E0FF2310E005230EE002230CE04F
:1040200002230AE0002308E0042306E00010014018
:10403000001401400040014005237A68D3753B68B5
:104040005B7A002B25D03B685B7A012B1FD03B6845
:104050005B7A022B19D03B685B7A032B13D03B6849
:104060005B7A042B0DD03B685B7A052B07D03B684D
:104070005B7A062B01D104230CE0FF230AE0052321
:1040800008E0022306E0022304E0002302E0042308
:1040900000E005237A6813763B681B7A002B25D055
:1040A0003B681B7A012B1FD03B681B7A022B19D06F
:1040B0003B681B7A032B13D03B681B7A042B0DD073
:1040C0003B681B7A052B07D03B681B7A062B01D176
:1040D00007230CE0FF230AE0012308E0042306E0A5
:1040E0000E2304E0032302E0002300E006237A68A5
:1040F000D3763B685B7A002B25D03B685B7A012B3B
:104100001FD03B685B7A022B19D03B685B7A032B8C
:1041100013D03B685B7A042B0DD03B685B7A052B90
:1041200007D03B685B7A062B01D104230CE0FF2308
:104130000AE0022308E0052306E00F2304E004233D
:1041400002E0012300E007237A681377A4E07B688C
:104150001B685D4A934240F09D803B681B7A002BB0
:104160001FD03B681B7A012B19D03B681B7A022BAE
:1041700013D03B681B7A032B0DD03B681B7A042BB2
:1041800007D03B681B7A052B01D107230AE0FF23E8
:1041900008E0042306E0042304E0012302E00523F1
:1041A00000E002237A68D3753B685B7A002B1FD04E
:1041B0003B685B7A012B19D03B685B7A022B13D0EA
:1041C0003B685B7A032B0DD03B685B7A042B07D0EE
:1041D0003B685B7A052B01D107230AE0FF2308E047
:1041E000042306E0042304E0012302E0052300E0A9
:1041F00002237A6813763B681B7A002B1FD03B683A
:104200001B7A012B19D03B681B7A022B13D03B6819
:104210001B7A032B0DD03B681B7A042B07D03B681D
:104220001B7A052B01D10B230AE0FF2308E00C23A6
:1042300006E0022304E0092302E00A2300E00C2345
:104240007A68D3763B685B7A002B1FD03B685B7A39
:10425000012B19D03B685B7A022B13D03B685B7A49
:10426000032B0DD03B685B7A042B07D03B685B7A4D
:10427000052B01D10C230AE0FF2308E00D2306E003
:10428000032304E00A2302E00B2300E00D237A68F5
:10429000137701E00D4B10E03B685A7C7B685A763F
:1042A0003B689A7C7B685A773B68DA7C7B689A76B5
:1042B0003B681A7D7B689A77002318460C37BD4609
:1042C0005DF8047B704700BF00440140037000F0BC
:1042D00080B584B002AF78600B46FB70FB78002B92
:1042E0004CD07B68D87D7B68DB7E19460123042295
:1042F00002F03CFE7B68187E7B681B7F1946012319
:10430000022202F033FE7B6893F83130022B1DD17C
:104310007B68587E7B685B7F19460023012202F090
:1043200025FE7B68987E7B689B7F194600230422CC
:1043300002F01CFE7B68587E7B685B7F1946012378
:10434000009301230122FEF7E0FD63E07B6893F810
:104350003130032B5ED17B68587E7B685B7F1946CA
:104360000023012202F002FE7B68987E7B689B7F1F
:1043700019460023042202F0F9FD4BE07B68D87D4A
:104380007B68DB7E19460023002202F0EFFD7B688C
:10439000187E7B681B7F19460023002202F0E6FD91
:1043A0007B6893F83130022B1DD17B68587E7B6887
:1043B0005B7F19460023002202F0D8FD7B68987EBF
:1043C0007B689B7F19460023002202F0CFFD7B68AB
:1043D000587E7B685B7F19460023009301230122EE
:1043E000FEF793FD16E07B6893F83130032B11D173
:1043F0007B68587E7B685B7F19460023002202F0B1
:10440000B5FD7B68987E7B689B7F19460023002260
:1044100002F0ACFD002318460837BD4680BD000001
:1044200080B485B000AF7860234B1B7883F0010324
:10443000DBB2002B10D00023BB6007E01F4ABB6833
:10444000002142F82310BB680133BB60BB68032B1B
:10445000F4D9194B01221A700023FB730023BB60AF
:1044600017E0164ABB6852F82330002B06D0134AD7
:10447000BB6852F823307A689A4207D10F49BB686B
:104480007A6841F823200123FB7305E0BB68013300
:10449000BB60BB68032BE4D9FB7B83F00103DBB279
:1044A000002B01D0064B00E0002318461437BD4610
:1044B0005DF8047B704700BF3407002038070020F8
:1044C000027000F080B485B000AFF860B9607A6027
:1044D000FB68BA685A62FB685B6A00221A80FB6854
:1044E0005B6A00225A80FB685B6A00229A80FB6844
:1044F000002283F82C20FB687A689A62FB689B6A2A
:1045000000221A80FB689B6A00225A80FB689B6A23
:1045100000229A80FB68002283F82D20FB6800228D
:1045200083F82F2000BF1437BD465DF8047B704729
:1045300080B582B000AF7860FCF781FA7B685B7F62
:1045400009491846FCF78CFA7B6800229A757B684B
:1045500000221A757B6802225A757868FEF78DFD75
:1045600000BF0837BD4680BDDB2F000080B582B09C
:1045700000AF7860FBF74EFF7B68043300211846DC
:10458000FBF7F6FE0346002B01D0094B0BE07B68DE
:10459000083300211846FBF7EBFE0346002B01D041
:1045A000034B00E0002318460837BD4680BD00BF1E
:1045B0000E7000F0B0B58CB000AF78603960984BE9
:1045C00007F10C041D460FCD0FC495E8070084E8E1
:1045D00007007B68002B01D1924B8EE13B68002BDA
:1045E00001D1914B89E134220021786804F055FA19
:1045F0007868FFF715FFF862FB6A002B01D0FB6AB1
:104600007BE13B681A7C7B6883F831203B681A6841
:104610007B681A607B68002283F832203B681B6845
:10462000824A93420AD17B68814A1A627B68814A36
:10463000DA607B684FF440221A6171E03B681B68C6
:104640007D4A93420AD17B687C4A1A627B687C4A25
:10465000DA607B684FF450221A6161E03B681B68A6
:10466000784A93420AD17B68774A1A627B68774A14
:10467000DA607B684FF460221A6151E03B681B6886
:10468000734A93420AD17B68724A1A627B68724A03
:10469000DA607B684FF470221A6141E03B681B6866
:1046A0006E4A93420AD17B686D4A1A627B686D4AF2
:1046B000DA607B684FF480121A6131E03B681B6856
:1046C000694A93420AD17B68684A1A627B68684AE1
:1046D000DA607B684FF488121A6121E03B681B683E
:1046E000644A93420AD17B68634A1A627B68634AD0
:1046F000DA607B684FF490121A6111E03B681B6826
:104700005F4A93420AD17B685E4A1A627B685E4ABE
:10471000DA607B684FF498121A6101E0424BECE0DA
:104720003B6899693B68DB691A467868FFF7CAFEFF
:104730003B685B687B613B685B89BB833B689B89AB
:104740007B833B689B7B3B763B68DB7BBB770523AE
:104750007B7601214D4800F02DFF01214C4800F0EF
:1047600029FF7B681B6A0121184600F023FF002304
:104770003B733B681B6807F10C021146184602F0B8
:104780007FFF3B681B6803225A673B681B689B6F6F
:1047900023F4E06323F007033A68127A12021A4303
:1047A0003B685B7A19463B681B680A439A6739681D
:1047B0007868FFF743F8F862FB6A002B01D0FB6AC8
:1047C0009BE001217868FFF783FDF862FB6A002B0C
:1047D00001D0FB6A91E002F017F9B8623B681B7CDC
:1047E000032B57D13B681B685A6F3B681B6842F02C
:1047F00030025A673B681B685A6E3B681B6842F080
:1048000004025A663B6893F820301A463B6893F8D6
:1048100021301B021A433B681B68DA6741E000BF86
:104820006CAE0000027000F0037000F00000014068
:104830000072040001000C0000040140008204002A
:1048400001000D00000801400092060001000E006A
:10485000000C014000A2040001000F000010014004
:1048600000B20400010010000014014000C2040066
:104870000100110000400140004E04000100120040
:1048800000440140005E04000100130040410500A7
:1048900000550A003B681B7C022B02D17868FFF7A9
:1048A00047FE3B681B684FF0FF311846FEF747FA9A
:1048B0003B681B7C032B06D13B681B68052118460F
:1048C00002F094FE05E03B681B680421184602F0E4
:1048D0008DFE3B681B684FF44062DA60FBF79AFD7F
:1048E0007868FFF743FEF862B86A02F09DF8FB6A49
:1048F000002B01D0FB6A00E0002318463037BD468C
:10490000B0BD00BF80B588B000AFF860B9607A6014
:104910007A68B968F868FEF76FFFB861BB69002B69
:1049200001D0BB697AE0022002F08CF80346FB75E7
:1049300004E0FB7D002B01D0FBF79EFEFB689B6A29
:104940009B889BB2002B05D0FB6893F82E30DBB21E
:10495000002BEED0FB6893F83230002B06D1FB68B9
:104960001B681B6903F00203FB610DE0FB6893F811
:104970003230012B06D1FB681B689B6803F00203F1
:10498000FB6101E00023FB61FB69002B02D1F868A9
:10499000FEF79CFCFB68012283F83020FB6893F84B
:1049A0003230002B17D108E0FB681868BB685A1C2E
:1049B000BA601B78194602F0FBFF7B685A1E7A60CA
:1049C000002BF1D100BFFB681B681B6903F02003BB
:1049D000002BF8D01BE0FB6893F83230012B16D186
:1049E00008E0FB681868BB685A1CBA601B78194657
:1049F00002F0EDFC7B685A1E7A60002BF1D100BFFB
:104A0000FB681B689B6803F00803002BF8D0FB6968
:104A1000002B02D1F868FEF79EFC002318462037D1
:104A2000BD4680BD80B582B000AF78607B68002B4A
:104A300001D1104B1AE07B6893F82E30DBB2002BCB
:104A40000AD17868FEF7B0FA0346002B04D17B68E0
:104A50005B681846FBF762FD7B6893F82E30DBB28B
:104A60000133DAB27B6883F82E200023184608371A
:104A7000BD4680BD027000F080B58CB000AFF8601C
:104A8000B9607A603B607A68B968F868FEF7B4FE8E
:104A9000F862FB6A002B01D0FB6A35E0BB68BB61A2
:104AA0007B68FB617B683B623B687B62184BBB6247
:104AB000FB685B6A07F1140207F118011846FEF75C
:104AC00043FBF862FB6A002B01D0FB6A1CE0FB6829
:104AD00093F82C30DBB283F00103DBB2002B12D051
:104AE000F868FEF76DFC7B691946F868FEF7E2FC92
:104AF000FB6893F83130032B05D0FB6800221A7550
:104B0000F868FEF7BAFA002318463037BD4680BD74
:104B1000017000F080B58CB000AFF860B9607A60C9
:104B20007A68B968F868FEF767FEF862FB6A002BDE
:104B300001D0FB6A3EE0BB68BB617B68FB617B68C0
:104B40003B6200237B621D4BBB62FB685B6A07F123
:104B5000140207F118011846FEF7F6FAF862FB6A2C
:104B6000002B03D0FB6A25E0FEF7EAF9FB685B6ADD
:104B70009B889BB2012BF7D8F868FEF721FCFB68F5
:104B800093F83130032B05D0FB6800221A75F868C2
:104B9000FEF773FA7B691946F868FEF78BFC01E0B3
:104BA000FEF7CEF9FB6893F82C30DBB2002BF7D17F
:104BB0007B691B6918463037BD4680BD017000F027
:104BC00080B582B000AF78607B68002B01D1144BB8
:104BD00022E07B6893F82E30DBB2002B1BD07B6881
:104BE00093F82E30DBB2012B0AD17868FEF7DCF99E
:104BF0000346002B04D17B685B681846FBF7C2FCB8
:104C00007B6893F82E30DBB2013BDAB27B6883F825
:104C10002E20002300E0034B18460837BD4680BD18
:104C2000027000F0057000F080B58CB000AFF86045
:104C3000B9607A603B607A68B968F868FEF7DCFDB5
:104C4000F862FB6A002B01D0FB6A37E0BB687B612E
:104C50007B68BB617B68FB613B683B62194B7B6295
:104C6000FB689B6A07F1100207F114011846FEF772
:104C70006BFAF862FB6A002B01D0FB6A1EE0FB684E
:104C800093F82D30DBB283F00103DBB2002B14D09C
:104C900001F0BAFEB862FB689B6A9B889BB2002B4E
:104CA00008D03B691946F868FEF742FCFB68012210
:104CB00083F83020B86A01F0B7FE00231846303779
:104CC000BD4680BD017000F080B483B000AF786055
:104CD00039607B683A685A6100BF0C37BD465DF8A1
:104CE000047B704780B483B000AF78607B68DB687A
:104CF00018460C37BD465DF8047B704780B582B01E
:104D000000AF0A48FFF7EEFF78607B6803F01003FE
:104D1000002B06D010210548FFF7D6FF044B0122D7
:104D20001A7000BF0837BD4680BD00BF008001403B
:104D30004807002080B487B000AFF860B9607A609F
:104D4000FB6803F10473DA00BB6813449B007B61CA
:104D50007B697A681A6000BF1C37BD465DF8047B2A
:104D6000704780B485B000AF786039607B6803F12C
:104D70000473DA003B6813449B00FB60FB681B680C
:104D800018461437BD465DF8047B704780B485B083
:104D900000AF786039607B6803F1C063FB60FB683B
:104DA0003A681A6000BF1437BD465DF8047B70474F
:104DB00080B485B000AF786039607B6803F18063B0
:104DC000FB60FB683A681A6000BF1437BD465DF8A7
:104DD000047B704780B483B000AF786001227B68A9
:104DE00002FA03F318460C37BD465DF8047B7047A2
:104DF00080B584B000AF78607B680133B3FA83F389
:104E0000C3F11F03FB60F868FFF7E4FFFB68184677
:104E10001037BD4680BD000080B500AF00BF122135
:104E20000348FFF79EFF0346002BF8D100BF80BD6B
:104E300004300E4080B500AFFFF7EEFF034B5B6818
:104E40001B0C03F00303DBB2184680BD00300E409C
:104E500080B584B000AF78600123FB607B68124AA4
:104E6000934204D80023FB600023BB6008E07B680A
:104E70000E4A934202D80123BB6001E00223BB60CB
:104E8000FA6810210A48FFF755FF094BD3F80031A3
:104E900023F04072BB681B0605491343C1F800317B
:104EA00000BF1037BD4680BD0048E8010090D00328
:104EB00000400E4080B483B000AF054B1B687B60A0
:104EC0007B6818460C37BD465DF8047B704700BF11
:104ED0002400002080B582B000AFFBF7D5F97860E0
:104EE000064BD3F800311B0A03F01F0301337A6825
:104EF00002FB03F318460837BD4680BD00400E4054
:104F000080B582B000AF0D4800F07CFF0346FB7017
:104F1000FB78072B05D0092B07D1FBF7B5F9786093
:104F200006E0FFF7C7FF786002E000237B6000BF68
:104F30007B6818460837BD4680BD00BF06000E00DE
:104F400080B584B000AF78607B68002B02D0012B65
:104F500006D00BE01E4800F055FF0346FB7207E049
:104F60001C4800F04FFF0346FB7201E000232AE0DB
:104F7000FB7A013B072B22D801A252F823F000BF95
:104F8000A14F0000BF4F0000BF4F0000AF4F000017
:104F9000BF4F0000BF4F0000A74F0000B74F0000F9
:104FA0000023FB600EE0FFF785FFF8600AE0FBF7E7
:104FB000A3F9F86006E0FFF78DFFF86002E0002338
:104FC000FB6000BFFB6818461037BD4680BD00BFC0
:104FD000B8003000B900320080B582B000AF194887
:104FE00000F010FF0346FB70FB78043B062B21D832
:104FF00001A252F823F000BF1D5000001550000020
:10500000355000002550000035500000355000009C
:105010002D5000000C4B1B687B600EE0FBF76CF919
:1050200078600AE0FFF746FF786006E0074B1B68F0
:105030007B6002E000237B6000BF7B681846083776
:10504000BD4680BD0A7B34000C00002028000020F3
:1050500080B584B000AF78607B68002B1AD11A4805
:1050600000F0D0FE0346FB7200BFFB7A043B062B28
:1050700022D801A252F823F0A1500000995000005C
:10508000B9500000A9500000B9500000B95000000C
:10509000B1500000002313E00C4B1B68FB600EE0D6
:1050A000FBF72AF9F8600AE0FFF704FFF86006E072
:1050B000074B1B68FB6002E00023FB6000BFFB683E
:1050C00018461037BD4680BD0B7C36000C00002012
:1050D0002800002080B582B000AF214800F092FE89
:1050E0000346FB70FB78023B092B31D801A252F832
:1050F00023F000BF4151000049510000255100003C
:10510000395100005151000051510000515100002F
:10511000515100001D5100002D510000114B1B6822
:105120007B6018E0FBF7E8F8786014E0FBF7E4F840
:1051300003465B007B600EE00B4B1B687B600AE064
:10514000FBF70AF9786006E0FBF7F4F8786002E014
:1051500000237B6000BF7B6818460837BD4680BDD2
:105160000C7F3800280000200C00002080B485B09F
:1051700000AF786039604FF080435B6803F04073A4
:10518000FB600023BB6012E01B4ABB68DB001344DA
:105190001A793B68DBB29A4206D1174ABB6852F8CB
:1051A00033307A689A4206D9BB680133BB60BB686A
:1051B000062BE9D900E000BFBB68072B02D103230F
:1051C000FB6005E00C4ABB68DB0013445B79FB60C5
:1051D000FB681B06FB604FF080435B6823F0407266
:1051E0004FF08041FB6813434B6000BF1437BD464E
:1051F0005DF8047B704700BF98AE000080B582B0B8
:1052000000AF4FF080431B6C002B14BF0123002321
:10521000FB714FF0804341F671321A64FBF72AF8B4
:10522000034600211846FFF7A1FFFB79002B03D0AE
:105230004FF0804300221A6400BF0837BD4680BD8E
:1052400080B584B000AF786039600C4BFB603B6880
:10525000022B01D10A4BFB607A68FB689A4204D9A1
:1052600008490948FFF792FD03E006490648FFF7A1
:105270009FFD00BF1037BD4680BD00BF80D54302F3
:105280000024F400020202000001004080B582B058
:1052900000AF786039607B680B4A934209D93B685C
:1052A000002B06D14FF480514FF08040FFF76EFD88
:1052B00005E04FF480514FF08040FFF779FD00BFCB
:1052C0000837BD4680BD00BF80F0FA0280B584B0CB
:1052D00000AF786039604FF080431B6C002B14BF27
:1052E00001230023FB734FF0804341F671321A64AF
:1052F00039687868FFF73AFF39687868FFF7A0FFE8
:1053000039687868FFF7C2FFFB7B002B03D04FF0B2
:10531000804300221A6400BF1037BD4680BD0000E4
:1053200080B400AF044B5B6A1B0903F0030318460B
:10533000BD465DF8047B704700400E4080B483B0EA
:1053400000AF7860074B5B6A23F030027B681B017B
:10535000044913434B6200BF0C37BD465DF8047B24
:10536000704700BF00400E4090B585B000AF786038
:105370000023BB607B683F4A93420DD03D4A934275
:1053800003D83D4A934207D007E03C4A934203D0FA
:105390003B4A934200D000E000BF786800F032FD45
:1053A0000346FB607B68334A934214D0314A9342F0
:1053B00003D8314A934207D022E0304A934211D0B9
:1053C0002F4A934215D01BE02E4BD3F8803003F0C8
:1053D0000703FB6014E02B4BD3F8843003F0070382
:1053E000FB600DE0274BD3F88C3003F00703FB6024
:1053F00006E0244BD3F8883003F00703FB6000BFBE
:10540000FB68042B2DD801A252F823F05D54000054
:105410002154000029540000395400003154000088
:10542000FAF788FFB8601FE0FAF796FFB8601BE054
:10543000FAF789FFB86017E0FAF7FCFE0446114B53
:10544000D3F800311B0E03F0030301331846FFF7B6
:10545000C1FC0346B4FBF3F3BB6005E00023BB6073
:1054600002E00023BB6000BFBB6818461437BD468E
:1054700090BD00BF03001E0002001C0004002000BD
:105480000500220000400E4080B483B000AF786079
:105490000A4BD3F8443103F00103002B08D100BFBD
:1054A000064BD3F840217B681340002BF8D100E075
:1054B00000BF0C37BD465DF8047B704700400E40CE
:1054C00080B500AF0321064800F0D0FA032105485B
:1054D00000F0CCFA0321044800F0C8FA00BF80BDF8
:1054E00040410500504107006041090080B582B08D
:1054F00000AFFAF7C9FE3860FFF79CFC0346022BA9
:105500001AD13A68224B1344224AA2FB0323DB0D33
:105510007B607B68002B02D07B68013B7B607968F5
:105520001D4800F0A3FA79681C4800F09FFA7968DA
:105530001B4800F09BFA27E03A681A4B13441A4ABA
:10554000A2FB03231B0E7B607B68002B02D07B68D1
:10555000013B7B607968104800F088FA7968104850
:1055600000F084FA3A68114B1344114AA2FB03235A
:105570009B0E7B607B68002B02D07B68013B7B60CD
:105580007968064800F072FA00BF0837BD4680BD52
:10559000FF2C31016BCA5F6B404105005041070091
:1055A000604109007FF0FA02893BE655FFA14A04F9
:1055B000B5FA9BEE80B586B000AF78600B46FB7005
:1055C00000233B617B681B0A03F00F03013B0E2B9A
:1055D0007CD801A252F823F0155600002156000095
:1055E000CD560000CD5600001B5600002D56000081
:1055F00037560000415600004D560000A3560000EB
:10560000595600007B560000CD560000275600007A
:105610009D5600002F4B7B6146E02F4B7B6143E0A2
:105620002E4B7B6140E02E4B7B613DE02D4B7B613F
:1056300001233B6138E02C4B7B6110233B6133E05D
:105640002A4B7B614FF480733B612DE0284B7B61DB
:105650004FF480333B6127E0264B7B61FB78002BC6
:1056600014BF01230023DBB283F00103DBB2FB7024
:10567000FB7803F00103FB7016E01F4B7B61FB78A6
:10568000002B14BF01230023DBB283F00103DBB244
:10569000FB70FB7803F00103FB7005E0174B7B61A7
:1056A00002E0174B7B6100BF7B681B0B03F01F03FD
:1056B000FB603B69002B02D03869FFF7E5FEFB7801
:1056C0001A46F9687869FFF735FB00E000BF183724
:1056D000BD4680BD00400E40B0400E40C0400E4070
:1056E000C4400E40E0400E40E8400E40EC400E400A
:1056F000F0400E4060410E4064410E40F0410E40CB
:1057000050410E4080B584B000AF78607B6803F4F0
:105710007813B3F5C01F00F02081B3F5C01F37D850
:10572000B3F5202F00F0A580B3F5202F13D8B3F5E3
:10573000802F71D0B3F5802F06D8002B68D0B3F539
:10574000003F00F09A807FE1B3F5C02F73D0B3F52E
:10575000002F7FD078E1B3F5801F00F04581B3F5CD
:10576000801F08D8B3F5402F00F09680B3F5602F66
:1057700000F0368168E1B3F5A01F00F0B080B3F50A
:10578000B01F00F0B180B3F5901F00F099805BE18D
:10579000B3F5301F00F0CD80B3F5301F1BD8B3F543
:1057A000F01F00F0D580B3F5F01F07D8B3F5D01F78
:1057B00000F0E580B3F5E01F7DD045E1B3F5181F9B
:1057C00000F00481B3F5201F00F0A080B3F5081F9E
:1057D00000F0018138E1B3F5481F00F01881B3F5FE
:1057E000481F08D8B3F5381F00F0DC80B3F5401F20
:1057F00000F0FE8028E1B3F5581F00F01C81B3F5DE
:10580000601F00F01D81B3F5501F00F010811BE1F7
:10581000FAF73AFDF8601AE1FAF736FDF8608E4BB8
:10582000D3F80C311B0AC3F308030133FA68B2FB47
:10583000F3F3FB600BE1FAF727FDF860864BD3F832
:1058400018311B0AC3F308030133FA68B2FBF3F300
:10585000FB60FCE0FAF718FDF8607F4BD3F81C31D1
:105860001B0AC3F308030133FA68B2FBF3F3FB60CE
:10587000EDE0FAF709FDF860E9E0FAF705FDF860F8
:10588000754BD3F808311B0AC3F308030133FA68D8
:10589000B2FBF3F3FB60DAE0FAF7F6FCF8606E4B6C
:1058A000D3F814311B0A03F01F030133FA68B2FB6B
:1058B000F3F3FB60CBE06948FFF756FDF860C6E004
:1058C0006648FFF751FDF860634BD3F820311B0C9D
:1058D00003F00F03FA6822FA03F3FB60B7E06048B5
:1058E000FFF742FDF860B2E05C48FFF73DFDF8606D
:1058F000594BD3F8203103F00F031846FFF76AFA2B
:105900000246FB68B3FBF2F3FB60A0E05348FFF7ED
:105910002BFDF860504BD3F820311B0B03F007032D
:105920001846FFF757FA0246FB68B3FBF2F3FB6039
:105930008DE04A48FFF718FDF860474BD3F8203157
:105940001B0A03F00303FA6822FA03F3FB607EE00C
:105950004448FFF709FDF86079E04248FFF704FD8D
:10596000F8603D4BD3F8283103F003031846FFF7E6
:1059700031FA0246FB68B3FBF2F3FB6067E039489B
:10598000FFF7F2FCF860344BD3F828311B0903F021
:1059900003031846FFF71EFA0246FB68B3FBF2F357
:1059A000FB6054E02F48FFF7DFFCF8602A4BD3F888
:1059B00028311B0B03F0030304331846FFF70AFAE0
:1059C0000246FB68B3FBF2F3FB6040E02648FFF7BA
:1059D000CBFCF8603BE02248FFF7C6FCF86036E0FD
:1059E000FFF78EFAF86032E0FFF764FAF8602EE015
:1059F0000020FFF7A5FAF860174BD3F85C3103F0ED
:105A000003030133FA68B2FBF3F3FB601FE00120EC
:105A1000FFF796FAF860104BD3F85C311B0C03F0DB
:105A200003030133FA68B2FBF3F3FB600FE0FFF707
:105A3000D3FAF8600BE00020FFF70AFBF86006E0FD
:105A4000FFF748FBF86002E00023FB6000BFFB6843
:105A500018461037BD4680BD00400E4002001C00B5
:105A60000500220003001E000400200080B584B061
:105A700000AF786039607B681B0903F00F03FB609F
:105A8000FB68013B0A2B00F2B68101A252F823F019
:105A9000BD5A0000095B0000215B0000395B00007B
:105AA000555B0000715B00008D5B0000D55B000062
:105AB000BB5C0000535D00007D5D0000FFF79EFBB6
:105AC000B848FFF7C5F9FFF7FBFCB74BD3F8003137
:105AD00023F4F8523B681B02B3491343C1F8003169
